{
  "_format": "hh-sol-artifact-1",
  "contractName": "Router",
  "sourceName": "contracts/core/Router.sol",
  "abi": [
    {
      "inputs": [
        {
          "internalType": "address",
          "name": "_perp",
          "type": "address"
        },
        {
          "internalType": "address",
          "name": "_oracle",
          "type": "address"
        },
        {
          "internalType": "address",
          "name": "_liquidityPool",
          "type": "address"
        },
        {
          "internalType": "address",
          "name": "_liquidation",
          "type": "address"
        }
      ],
      "stateMutability": "nonpayable",
      "type": "constructor"
    },
    {
      "inputs": [
        {
          "internalType": "bytes32",
          "name": "asset",
          "type": "bytes32"
        }
      ],
      "name": "closePosition",
      "outputs": [],
      "stateMutability": "nonpayable",
      "type": "function"
    },
    {
      "inputs": [
        {
          "internalType": "bytes32",
          "name": "asset",
          "type": "bytes32"
        }
      ],
      "name": "deposit",
      "outputs": [],
      "stateMutability": "payable",
      "type": "function"
    },
    {
      "inputs": [
        {
          "internalType": "address",
          "name": "user",
          "type": "address"
        },
        {
          "internalType": "bytes32",
          "name": "asset",
          "type": "bytes32"
        }
      ],
      "name": "getMargin",
      "outputs": [
        {
          "internalType": "uint256",
          "name": "",
          "type": "uint256"
        }
      ],
      "stateMutability": "view",
      "type": "function"
    },
    {
      "inputs": [
        {
          "internalType": "address",
          "name": "user",
          "type": "address"
        },
        {
          "internalType": "bytes32",
          "name": "asset",
          "type": "bytes32"
        }
      ],
      "name": "getPosition",
      "outputs": [
        {
          "internalType": "int256",
          "name": "size",
          "type": "int256"
        },
        {
          "internalType": "uint256",
          "name": "entryPrice",
          "type": "uint256"
        }
      ],
      "stateMutability": "view",
      "type": "function"
    },
    {
      "inputs": [
        {
          "internalType": "address",
          "name": "user",
          "type": "address"
        },
        {
          "internalType": "bytes32",
          "name": "asset",
          "type": "bytes32"
        }
      ],
      "name": "liquidate",
      "outputs": [],
      "stateMutability": "nonpayable",
      "type": "function"
    },
    {
      "inputs": [],
      "name": "liquidation",
      "outputs": [
        {
          "internalType": "contract ILiquidationEngine",
          "name": "",
          "type": "address"
        }
      ],
      "stateMutability": "view",
      "type": "function"
    },
    {
      "inputs": [],
      "name": "liquidityPool",
      "outputs": [
        {
          "internalType": "contract ILiquidityPool",
          "name": "",
          "type": "address"
        }
      ],
      "stateMutability": "view",
      "type": "function"
    },
    {
      "inputs": [
        {
          "internalType": "bytes32",
          "name": "asset",
          "type": "bytes32"
        },
        {
          "internalType": "int256",
          "name": "size",
          "type": "int256"
        },
        {
          "internalType": "uint256",
          "name": "price",
          "type": "uint256"
        }
      ],
      "name": "openPosition",
      "outputs": [],
      "stateMutability": "nonpayable",
      "type": "function"
    },
    {
      "inputs": [],
      "name": "oracle",
      "outputs": [
        {
          "internalType": "contract IOracle",
          "name": "",
          "type": "address"
        }
      ],
      "stateMutability": "view",
      "type": "function"
    },
    {
      "inputs": [],
      "name": "perp",
      "outputs": [
        {
          "internalType": "contract IPerp",
          "name": "",
          "type": "address"
        }
      ],
      "stateMutability": "view",
      "type": "function"
    },
    {
      "inputs": [
        {
          "internalType": "bytes32",
          "name": "asset",
          "type": "bytes32"
        },
        {
          "internalType": "uint256",
          "name": "amount",
          "type": "uint256"
        }
      ],
      "name": "withdraw",
      "outputs": [],
      "stateMutability": "nonpayable",
      "type": "function"
    }
  ],
  "bytecode": "0x60806040523480156200001157600080fd5b5060405162000e9738038062000e978339818101604052810190620000379190620001ae565b836000806101000a81548173ffffffffffffffffffffffffffffffffffffffff021916908373ffffffffffffffffffffffffffffffffffffffff16021790555082600160006101000a81548173ffffffffffffffffffffffffffffffffffffffff021916908373ffffffffffffffffffffffffffffffffffffffff16021790555081600260006101000a81548173ffffffffffffffffffffffffffffffffffffffff021916908373ffffffffffffffffffffffffffffffffffffffff16021790555080600360006101000a81548173ffffffffffffffffffffffffffffffffffffffff021916908373ffffffffffffffffffffffffffffffffffffffff1602179055505050505062000220565b600080fd5b600073ffffffffffffffffffffffffffffffffffffffff82169050919050565b6000620001768262000149565b9050919050565b620001888162000169565b81146200019457600080fd5b50565b600081519050620001a8816200017d565b92915050565b60008060008060808587031215620001cb57620001ca62000144565b5b6000620001db8782880162000197565b9450506020620001ee8782880162000197565b9350506040620002018782880162000197565b9250506060620002148782880162000197565b91505092959194509250565b610c6780620002306000396000f3fe60806040526004361061009c5760003560e01c80637dc0d1d0116100645780637dc0d1d014610199578063b214faa5146101c4578063b2843b79146101e0578063bfa4c00c14610209578063e54a2ad514610234578063f2dfbf661461025d5761009c565b8063040cf020146100a15780630fa8f516146100ca5780633af8c7a61461010857806359c7fa1814610131578063665a11ca1461016e575b600080fd5b3480156100ad57600080fd5b506100c860048036038101906100c391906107b4565b610288565b005b3480156100d657600080fd5b506100f160048036038101906100ec9190610852565b610319565b6040516100ff9291906108ba565b60405180910390f35b34801561011457600080fd5b5061012f600480360381019061012a9190610852565b6103c2565b005b34801561013d57600080fd5b5061015860048036038101906101539190610852565b610455565b60405161016591906108e3565b60405180910390f35b34801561017a57600080fd5b506101836104fc565b604051610190919061095d565b60405180910390f35b3480156101a557600080fd5b506101ae610522565b6040516101bb9190610999565b60405180910390f35b6101de60048036038101906101d991906109b4565b610548565b005b3480156101ec57600080fd5b5061020760048036038101906102029190610a0d565b6105d7565b005b34801561021557600080fd5b5061021e61066b565b60405161022b9190610a81565b60405180910390f35b34801561024057600080fd5b5061025b600480360381019061025691906109b4565b61068f565b005b34801561026957600080fd5b5061027261071d565b60405161027f9190610abd565b60405180910390f35b60008054906101000a900473ffffffffffffffffffffffffffffffffffffffff1673ffffffffffffffffffffffffffffffffffffffff1663040cf02083836040518363ffffffff1660e01b81526004016102e3929190610ae7565b600060405180830381600087803b1580156102fd57600080fd5b505af1158015610311573d6000803e3d6000fd5b505050505050565b60008060008054906101000a900473ffffffffffffffffffffffffffffffffffffffff1673ffffffffffffffffffffffffffffffffffffffff16630fa8f51685856040518363ffffffff1660e01b8152600401610377929190610b1f565b6040805180830381865afa158015610393573d6000803e3d6000fd5b505050506040513d601f19601f820116820180604052508101906103b79190610b72565b915091509250929050565b600360009054906101000a900473ffffffffffffffffffffffffffffffffffffffff1673ffffffffffffffffffffffffffffffffffffffff16633af8c7a683836040518363ffffffff1660e01b815260040161041f929190610b1f565b600060405180830381600087803b15801561043957600080fd5b505af115801561044d573d6000803e3d6000fd5b505050505050565b60008060009054906101000a900473ffffffffffffffffffffffffffffffffffffffff1673ffffffffffffffffffffffffffffffffffffffff166359c7fa1884846040518363ffffffff1660e01b81526004016104b3929190610b1f565b602060405180830381865afa1580156104d0573d6000803e3d6000fd5b505050506040513d601f19601f820116820180604052508101906104f49190610bb2565b905092915050565b600260009054906101000a900473ffffffffffffffffffffffffffffffffffffffff1681565b600160009054906101000a900473ffffffffffffffffffffffffffffffffffffffff1681565b60008054906101000a900473ffffffffffffffffffffffffffffffffffffffff1673ffffffffffffffffffffffffffffffffffffffff1663b214faa534836040518363ffffffff1660e01b81526004016105a29190610bdf565b6000604051808303818588803b1580156105bb57600080fd5b505af11580156105cf573d6000803e3d6000fd5b505050505050565b60008054906101000a900473ffffffffffffffffffffffffffffffffffffffff1673ffffffffffffffffffffffffffffffffffffffff1663b2843b798484846040518463ffffffff1660e01b815260040161063493929190610bfa565b600060405180830381600087803b15801561064e57600080fd5b505af1158015610662573d6000803e3d6000fd5b50505050505050565b60008054906101000a900473ffffffffffffffffffffffffffffffffffffffff1681565b60008054906101000a900473ffffffffffffffffffffffffffffffffffffffff1673ffffffffffffffffffffffffffffffffffffffff1663e54a2ad5826040518263ffffffff1660e01b81526004016106e89190610bdf565b600060405180830381600087803b15801561070257600080fd5b505af1158015610716573d6000803e3d6000fd5b5050505050565b600360009054906101000a900473ffffffffffffffffffffffffffffffffffffffff1681565b600080fd5b6000819050919050565b61075b81610748565b811461076657600080fd5b50565b60008135905061077881610752565b92915050565b6000819050919050565b6107918161077e565b811461079c57600080fd5b50565b6000813590506107ae81610788565b92915050565b600080604083850312156107cb576107ca610743565b5b60006107d985828601610769565b92505060206107ea8582860161079f565b9150509250929050565b600073ffffffffffffffffffffffffffffffffffffffff82169050919050565b600061081f826107f4565b9050919050565b61082f81610814565b811461083a57600080fd5b50565b60008135905061084c81610826565b92915050565b6000806040838503121561086957610868610743565b5b60006108778582860161083d565b925050602061088885828601610769565b9150509250929050565b6000819050919050565b6108a581610892565b82525050565b6108b48161077e565b82525050565b60006040820190506108cf600083018561089c565b6108dc60208301846108ab565b9392505050565b60006020820190506108f860008301846108ab565b92915050565b6000819050919050565b600061092361091e610919846107f4565b6108fe565b6107f4565b9050919050565b600061093582610908565b9050919050565b60006109478261092a565b9050919050565b6109578161093c565b82525050565b6000602082019050610972600083018461094e565b92915050565b60006109838261092a565b9050919050565b61099381610978565b82525050565b60006020820190506109ae600083018461098a565b92915050565b6000602082840312156109ca576109c9610743565b5b60006109d884828501610769565b91505092915050565b6109ea81610892565b81146109f557600080fd5b50565b600081359050610a07816109e1565b92915050565b600080600060608486031215610a2657610a25610743565b5b6000610a3486828701610769565b9350506020610a45868287016109f8565b9250506040610a568682870161079f565b9150509250925092565b6000610a6b8261092a565b9050919050565b610a7b81610a60565b82525050565b6000602082019050610a966000830184610a72565b92915050565b6000610aa78261092a565b9050919050565b610ab781610a9c565b82525050565b6000602082019050610ad26000830184610aae565b92915050565b610ae181610748565b82525050565b6000604082019050610afc6000830185610ad8565b610b0960208301846108ab565b9392505050565b610b1981610814565b82525050565b6000604082019050610b346000830185610b10565b610b416020830184610ad8565b9392505050565b600081519050610b57816109e1565b92915050565b600081519050610b6c81610788565b92915050565b60008060408385031215610b8957610b88610743565b5b6000610b9785828601610b48565b9250506020610ba885828601610b5d565b9150509250929050565b600060208284031215610bc857610bc7610743565b5b6000610bd684828501610b5d565b91505092915050565b6000602082019050610bf46000830184610ad8565b92915050565b6000606082019050610c0f6000830186610ad8565b610c1c602083018561089c565b610c2960408301846108ab565b94935050505056fea26469706673582212206df632d5c1399f1c787ca4694e3313b1fb6a25d59cc08a796af4bc4cc27bc34764736f6c63430008140033",
  "linkReferences": {},
  "deployedLinkReferences": {}
}